{
  "_format": "hh-sol-artifact-1",
  "contractName": "Presales",
  "sourceName": "contracts/Presales.sol",
  "abi": [
    {
      "anonymous": false,
      "inputs": [
        {
          "indexed": true,
          "internalType": "address",
          "name": "previousOwner",
          "type": "address"
        },
        {
          "indexed": true,
          "internalType": "address",
          "name": "newOwner",
          "type": "address"
        }
      ],
      "name": "OwnershipTransferred",
      "type": "event"
    },
    {
      "inputs": [],
      "name": "TOKEN",
      "outputs": [
        {
          "internalType": "contract IERC20",
          "name": "",
          "type": "address"
        }
      ],
      "stateMutability": "view",
      "type": "function"
    },
    {
      "inputs": [],
      "name": "aTOKEN",
      "outputs": [
        {
          "internalType": "contract IERC20",
          "name": "",
          "type": "address"
        }
      ],
      "stateMutability": "view",
      "type": "function"
    },
    {
      "inputs": [
        {
          "internalType": "address",
          "name": "_TOKEN",
          "type": "address"
        },
        {
          "internalType": "address",
          "name": "_aTOKEN",
          "type": "address"
        }
      ],
      "name": "initialize",
      "outputs": [],
      "stateMutability": "nonpayable",
      "type": "function"
    },
    {
      "inputs": [],
      "name": "isInitialized",
      "outputs": [
        {
          "internalType": "bool",
          "name": "",
          "type": "bool"
        }
      ],
      "stateMutability": "view",
      "type": "function"
    },
    {
      "inputs": [],
      "name": "maxAmt",
      "outputs": [
        {
          "internalType": "uint256",
          "name": "",
          "type": "uint256"
        }
      ],
      "stateMutability": "view",
      "type": "function"
    },
    {
      "inputs": [],
      "name": "migrate",
      "outputs": [],
      "stateMutability": "nonpayable",
      "type": "function"
    },
    {
      "inputs": [],
      "name": "owner",
      "outputs": [
        {
          "internalType": "address",
          "name": "",
          "type": "address"
        }
      ],
      "stateMutability": "view",
      "type": "function"
    },
    {
      "inputs": [],
      "name": "reclaim",
      "outputs": [],
      "stateMutability": "nonpayable",
      "type": "function"
    },
    {
      "inputs": [],
      "name": "renounceOwnership",
      "outputs": [],
      "stateMutability": "nonpayable",
      "type": "function"
    },
    {
      "inputs": [
        {
          "internalType": "address",
          "name": "",
          "type": "address"
        }
      ],
      "name": "senderInfo",
      "outputs": [
        {
          "internalType": "uint256",
          "name": "",
          "type": "uint256"
        }
      ],
      "stateMutability": "view",
      "type": "function"
    },
    {
      "inputs": [
        {
          "internalType": "bool",
          "name": "_started",
          "type": "bool"
        }
      ],
      "name": "setStarted",
      "outputs": [],
      "stateMutability": "nonpayable",
      "type": "function"
    },
    {
      "inputs": [],
      "name": "started",
      "outputs": [
        {
          "internalType": "bool",
          "name": "",
          "type": "bool"
        }
      ],
      "stateMutability": "view",
      "type": "function"
    },
    {
      "inputs": [
        {
          "internalType": "address",
          "name": "newOwner_",
          "type": "address"
        }
      ],
      "name": "transferOwnership",
      "outputs": [],
      "stateMutability": "nonpayable",
      "type": "function"
    },
    {
      "inputs": [],
      "name": "withdraw",
      "outputs": [],
      "stateMutability": "nonpayable",
      "type": "function"
    }
  ],
  "bytecode": "0x60806040526003805460ff60a81b1916905534801561001d57600080fd5b50600080546001600160a01b03191633178082556040516001600160a01b039190911691907f8be0079c531659141344cd1fd0a4f28419497f9722a3daafe3b4186f6b6457e0908290a3610ac8806100766000396000f3fe608060405234801561001057600080fd5b50600436106100ea5760003560e01c806382bfefc81161008c578063a6dd4c6611610066578063a6dd4c6614610197578063ef6b141a146101cf578063f019e2b2146101ee578063f2fde38b146101f6576100ea565b806382bfefc81461017f5780638da5cb5b146101875780638fd3ab801461018f576100ea565b80633ccfd60b116100c85780633ccfd60b14610137578063485cc95514610141578063715018a61461016f57806380e9071b14610177576100ea565b80630885a950146100ef5780631f2698ab14610113578063392e53cd1461012f575b600080fd5b6100f761021c565b604080516001600160a01b039092168252519081900360200190f35b61011b61022b565b604080519115158252519081900360200190f35b61011b61023b565b61013f61024b565b005b61013f6004803603604081101561015757600080fd5b506001600160a01b03813581169160200135166103f4565b61013f61047f565b61013f610516565b6100f761063e565b6100f761064d565b61013f61065c565b6101bd600480360360208110156101ad57600080fd5b50356001600160a01b031661087b565b60408051918252519081900360200190f35b61013f600480360360208110156101e557600080fd5b5035151561088d565b6101bd6108f8565b61013f6004803603602081101561020c57600080fd5b50356001600160a01b03166108fe565b6003546001600160a01b031681565b600354600160a81b900460ff1681565b600354600160a01b900460ff1681565b6000546001600160a01b03163314610298576040805162461bcd60e51b81526020600482018190526024820152600080516020610a73833981519152604482015290519081900360640190fd5b600354600160a81b900460ff16156102f7576040805162461bcd60e51b815260206004820152601c60248201527f61544f4b454e2073776170206973207374696c6c206f6e676f696e6700000000604482015290519081900360640190fd5b600254604080516370a0823160e01b815230600482015290516000926001600160a01b0316916370a08231916024808301926020929190829003018186803b15801561034257600080fd5b505afa158015610356573d6000803e3d6000fd5b505050506040513d602081101561036c57600080fd5b50516002546040805163a9059cbb60e01b81523360048201526024810184905290519293506001600160a01b039091169163a9059cbb916044808201926020929091908290030181600087803b1580156103c557600080fd5b505af11580156103d9573d6000803e3d6000fd5b505050506040513d60208110156103ef57600080fd5b505050565b6000546001600160a01b03163314610441576040805162461bcd60e51b81526020600482018190526024820152600080516020610a73833981519152604482015290519081900360640190fd5b600280546001600160a01b03199081166001600160a01b039485161790915560038054600160a01b9216929093169190911760ff60a01b1916179055565b6000546001600160a01b031633146104cc576040805162461bcd60e51b81526020600482018190526024820152600080516020610a73833981519152604482015290519081900360640190fd5b600080546040516001600160a01b03909116907f8be0079c531659141344cd1fd0a4f28419497f9722a3daafe3b4186f6b6457e0908390a3600080546001600160a01b0319169055565b33600090815260046020526040902054610577576040805162461bcd60e51b815260206004820152601e60248201527f7573657220686173206e6f2061544f4b454e20746f2077697468647261770000604482015290519081900360640190fd5b600354600160a81b900460ff16156105d6576040805162461bcd60e51b815260206004820152601c60248201527f61544f4b454e2073776170206973207374696c6c206f6e676f696e6700000000604482015290519081900360640190fd5b336000818152600460208181526040808420805490859055600354825163a9059cbb60e01b81529485019690965260248401819052905190946001600160a01b03169363a9059cbb936044808201949392918390030190829087803b1580156103c557600080fd5b6002546001600160a01b031681565b6000546001600160a01b031690565b600354600160a01b900460ff166106ac576040805162461bcd60e51b815260206004820152600f60248201526e1b9bdd081a5b9a5d1a585b1a5e9959608a1b604482015290519081900360640190fd5b600354604080516370a0823160e01b815233600482015290516000926001600160a01b0316916370a08231916024808301926020929190829003018186803b1580156106f757600080fd5b505afa15801561070b573d6000803e3d6000fd5b505050506040513d602081101561072157600080fd5b5051600354909150600160a81b900460ff16610773576040805162461bcd60e51b815260206004820152600c60248201526b139bdd081bdc195b881e595d60a21b604482015290519081900360640190fd5b600354604080516323b872dd60e01b81523360048201523060248201526044810184905290516001600160a01b03909216916323b872dd916064808201926020929091908290030181600087803b1580156107cd57600080fd5b505af11580156107e1573d6000803e3d6000fd5b505050506040513d60208110156107f757600080fd5b50503360009081526004602052604090205461081390826109eb565b33600081815260046020818152604080842095909555600254855163a9059cbb60e01b8152928301949094526024820186905293516001600160a01b039093169363a9059cbb9360448084019492939192918390030190829087803b1580156103c557600080fd5b60046020526000908152604090205481565b6000546001600160a01b031633146108da576040805162461bcd60e51b81526020600482018190526024820152600080516020610a73833981519152604482015290519081900360640190fd5b60038054911515600160a81b0260ff60a81b19909216919091179055565b60015481565b6000546001600160a01b0316331461094b576040805162461bcd60e51b81526020600482018190526024820152600080516020610a73833981519152604482015290519081900360640190fd5b6001600160a01b0381166109905760405162461bcd60e51b8152600401808060200182810382526026815260200180610a4d6026913960400191505060405180910390fd5b600080546040516001600160a01b03808516939216917f8be0079c531659141344cd1fd0a4f28419497f9722a3daafe3b4186f6b6457e091a3600080546001600160a01b0319166001600160a01b0392909216919091179055565b600082820183811015610a45576040805162461bcd60e51b815260206004820152601b60248201527f536166654d6174683a206164646974696f6e206f766572666c6f770000000000604482015290519081900360640190fd5b939250505056fe4f776e61626c653a206e6577206f776e657220697320746865207a65726f20616464726573734f776e61626c653a2063616c6c6572206973206e6f7420746865206f776e6572a2646970667358221220e3794c99f73213800aed71f4c96ca7e12654b229fcadd27dc8b587a7c6a6eb7764736f6c63430007050033",
  "linkReferences": {},
  "deployedLinkReferences": {}
}